:1000000002308A006D2A00000A108A100A11820745
:1000100028340C3401340634D024C3183623B81BDA
:10002000B7200000CC214410653CE13670366500F5
:10003000C8326C366F10F7377236E4100001C830E2
:10004000F632A0302037E9316510E4307900C8324B
:100050006C366F10F7377236E410000127308400D9
:1000600083130008031941280230F800F701F70B49
:100070003728F80B36289730F700F70B3D28800B10
:10008000342808002E184628871147288715A01104
:100090002008831687008312AE18502807125128B3
:1000A0000716201220088316870083122E195A285B
:1000B00087125B288716A0122008831687008312F8
:1000C000AE19642807136528071720132008831624
:1000D000870000008312071520112008831687006F
:1000E00071287228831207112011200883168700B7
:1000F00083120800AF01A015200883168700003086
:10010000831287190130AF04201620088316870058
:1001100000308312071A0130F7000310F70D77083B
:10012000AF04A01620088316870000308312871AB8
:100130000130F700F70DF70DFC30F7057708AF0435
:10014000201720088316870000308312071B013018
:10015000F700F70DF70DF70DF830F7057708AF0446
:100160002F08F8000800201120088316870083124A
:1001700020102008831687008312A0102008831601
:100180008700831207102010200883168700871528
:1001900007168716071783128714A01020088316E6
:1001A000870000008312071520112008831687009E
:1001B000000083127A207808AE0007112011200871
:1001C000831687000000831207152011200883166C
:1001D0008700EA2883127A207808AD0007112011E1
:1001E0002008831687008312A01120088316870039
:1001F000831220122008831687008312A012200881
:100200008316870083122013200883168700831229
:100210002E0EF700F030F70577082D04F800780867
:10022000AD00AD1F15298316C728AB08031D1A2979
:1002300007101B29071420102008831687000000D0
:1002400083128710A01020088316870000008312F5
:100250000711201120088316870083122C0EAD0091
:100260000F30AD052D08AE0042202C080F39AD002F
:10027000AE0042200800A0112008831687008312D8
:1002800020122008831687008312A01220088316EC
:100290008700831220132008831687008312201101
:1002A00020088316870083122010200883168700F9
:1002B0008312A010200883168700831207102010D5
:1002C00020088316870083128710A0102008831649
:1002D00087008312071120112008831687000F3032
:1002E0008312A7002E200130A2002208033C031C29
:1002F00081290330AE0042200530A7002E20A20A3B
:1003000075290230AE0042200530A7002E20A20140
:100310002208033C031C952922080420A300AB01FA
:100320002308AC00B320A20A88298A110A127B2A6A
:10033000280B9B299E294030A9009F29A901013043
:100340002702A90729088038AA00AB012A08AC00B7
:10035000B32008002608073A0319B8290B3A0319F5
:10036000BD29063A0319C529023A0319CB29D02918
:100370000130A700A8009821D529AB010130AC00BD
:10038000B3200230A7002E20D5290130A70002306B
:10039000A8009821D529AB011030AC00B320D52995
:1003A0000130AB002608AC00B32008000B08A20007
:1003B0008B13831603178C170C1400000000831294
:1003C0000C087F3903191D2A0313A30003170D0816
:1003D0000313A40003170F080313A5002308A600A6
:1003E000AA21240803178D000313250803178F0083
:1003F00083168C170C140000000083120C0D0E0DD8
:100400007F3903191D2A0313A30003170D080313D3
:10041000A40003170F080313A5002308A600AA21B0
:10042000240803178D000313250803178F008D0A76
:1004300003198F0A0313D92903170313A21B8B1760
:1004400008002508F80124020318292A2408F700C7
:10045000352AF7010830A600A40DF70D250877020C
:100460000318F700F80DA60B2C2A080078082208BC
:10047000A4006430A50021227708A200780830305B
:10048000031D492AA31C502AA319502A231A2030DD
:100490004C2AA31123122314F8077808A600AA21D6
:1004A0002208A4000A30A50021227708A2007808BB
:1004B0003030031D612AA319652A231C652A231ADB
:1004C0002030F8077808A600AA213030A2072208B9
:1004D000A600AA218A110A12DC2AFF30A000831686
:1004E0001F149F141F159F1107309C0083131F308A
:1004F000830583123B290C30A600AA210430A700F3
:100500000130A80098210C3003178D0000308F00B7
:100510000313D6210430A7000230A800982112301E
:1005200003178D0000308F000313D6211430A20072
:10053000FA30A7002E20A20B982A0C30A600AA2180
:100540000330A7000130A8009821183003178D0050
:1005500000308F000313D6210230A700A800982195
:100560001F3003178D0000308F000313D621143085
:10057000A200FA30A7002E20A20BB92A0C30A60048
:10058000AA210330A7000130A800982127300317C3
:100590008D0000308F000313D621A1012108C73C34
:1005A000031CE12A0730A7000230A8009821210887
:1005B000A2001330A300362A6430A7002E20A10A1F
:0605C000CE2A7B2A630035
:02400E00723FFF
:00000001FF
;PIC16F877A
;CRC=7816  CREATED="24-Ara-20 14:20"
