:1000000003308A000F2B00000A108A100A118207A1
:1000100028340C34013406348A254129412AC12C64
:100020000000D334E3306B36E935201DA01269108F
:10003000431020000A27E536201DA0122510A53404
:10004000201000003630840083130008031936287E
:100050000130F800F701F70B2B28F80B2A284A305B
:10006000F700F70B31283428800B282808003D18AA
:100070003B2806123C280616831606128312BD186A
:1000800043288611442886158316861183123D194C
:100090004B2806114C280615831606118312BD192C
:1000A0005328861054288614831686100000831265
:1000B0008616831686125C28831286128316861291
:1000C00083120800BE018316061600308312061A3A
:1000D0000130BE0483168615003083128619013064
:1000E000F7000310F70D7708BE04831606150030DD
:1000F000831206190130F700F70DF70DFC30F705F4
:100100007708BE04831686140030831286180130E7
:10011000F700F70DF70DF70DF830F7057708BE0477
:100120003E08F80008008316861286130613831211
:1001300086138316861306168615061586148312F3
:10014000061783160613000083128616831686127E
:100150000000831262207808BD0086128316861282
:100160000000831286168316861200008312622016
:100170007808BC00861283168612061286110611B4
:10018000861083123D0EF700F030F70577083C0427
:10019000F8007808BC00BC1FCF2883169B28BA083B
:1001A000031DD4288613D5288617831686130000CE
:1001B0008312061383160613000083128612831619
:1001C000861283123B0EBC000F30BC053C08BD00FC
:1001D00037203B080F39BC00BD00372008008316CC
:1001E00006128611061186108612861306138312D4
:1001F000861383168613831206138316061383123F
:100200008612831686120F308312B6002220013028
:10021000AF002F08033C031C15290330BD00372015
:100220000530B6002220AF0A09290230BD00372070
:100230000530B6002220AF012F08033C031C2929FA
:100240002F080420B000BA013008BB009320AF0A89
:100250001C298A110A121D2B370B2F2932294030F5
:10026000B8003329B80101303602B80738088038A1
:10027000B900BA013908BB00932008003508073AD5
:1002800003194C290B3A03195129063A0319592924
:10029000023A03195F2964290130B600B7002C2106
:1002A0006929BA010130BB0093200230B600222038
:1002B00069290130B6000230B7002C216929BA0142
:1002C0001030BB00932069290130BA003508BB000B
:1002D000932008000B08AF008B13831603178C17AD
:1002E0000C140000000083120C087F390319B12997
:1002F0000313B00003170D080313B10003170F0811
:100300000313B2003008B5003E21310803178D00F9
:100310000313320803178F0083168C170C14000088
:10032000000083120C0D0E0D7F390319B129031340
:10033000B00003170D080313B10003170F080313D0
:10034000B2003008B5003E21310803178D000313B9
:10035000320803178F008D0A03198F0A03136D29C2
:1003600003170313AF1B8B178A110A122D2BAF0132
:100370000130B60022202A102A0883168700831233
:1003800007142A102A0883168700831207101230D8
:10039000B60022202A102A08831687008312071429
:1003A0000930F700F70BD229D5292A142A08831619
:1003B00087008312B0010718B00AB0080319E329B7
:1003C0000130AF004C2A1A30F700F70BE529000086
:1003D0002A142A08831687008312B0010718B00A6E
:1003E000B008031DF6290230AF004C2A1A30F7007E
:1003F000F70BF8290000B1013108033C031C462A21
:1004000020303107F800FA010318FA0A7808B3001F
:100410007A08B400B501B601B5013508073C031CE4
:100420003B2A2A142A08831687008312071C112AE4
:100430000930F700F70B1A2A1D2A2A142A088316F6
:1004400087008312071C322A3508073CF800013068
:10045000F700F8080319302A0310F70DF80B2C2ABF
:100460007708B6042A142A0883168700831207180F
:10047000322AB50A0D2A3608F8003308840083139F
:100480003418831778088000B10AFC292A102A083A
:1004900083168700831207148A110A12422B0B0855
:1004A000B0008B13831603178C170C140000000088
:1004B0000318812A83120C087F390313B100031734
:1004C0000D080313B20003170F080313B30031081C
:1004D000B5003E21320803178D00031333080317BC
:1004E0008F0083168C170C14000000008312031376
:1004F000AF0B7B2A7E2A83160317812AA02A831634
:10050000031783120C0D0E0D7F390313B10003176F
:100510000D080313B20003170F080313B3003108CB
:10052000B5003E21320803178D000313330803176B
:100530008F008D0A03198F0A03100313AF0B522A81
:10054000B01B8B1708003608F80135020318AB2AD8
:100550003508F700B72AF7010830B700B50DF70DD9
:10056000360877020318F700F80DB70BAE2A08001B
:100570002030301E3030B1002F08F700AF1FC82ADE
:10058000F709F70A7708AF002D30B100B017301423
:100590002F08B5006430B600A3227708AF003030D2
:1005A0007807B2002F08B5000A30B600A322303019
:1005B0007707B40030307807B3003108F7003030E7
:1005C00032020319E72AB014B01B3015FB2A310898
:1005D000B2002030B100303033020319F32A301456
:1005E000B01BB014FB2A031D3014031DFB2A320874
:1005F000B3002030B2003019022BB018052B301890
:10060000082B0B2B3108B5003E213208B5003E21E6
:100610003308B5003E213408B5003E210800FF3004
:10062000AA0083161F149F141F159F1107309C00EA
:1006300083131F3083058312EF284B30B5003E2112
:100640005430B5003E214F30B5003E210C30031729
:100650008D0000308F0003136A290430AF00FA3098
:10066000B6002220AF0B2F2B0C30B5003E210430FA
:10067000AF00FA30B6002220AF0B392B0C30B5009A
:100680003E21B7296430B60022202208AB002008A2
:10069000AC002B082E0203196C2B0130B600B700FA
:1006A0002C21113003178D0000308F0003100B3008
:1006B0000313AF004F222B08AF001830B000B82250
:1006C000173003178D0000308F000314043003131C
:1006D000AF004F222B08AE002C082D020319922BDD
:1006E0000130B6000230B7002C211A3003178D00FC
:1006F00000308F00031007300313AF004F22253066
:10070000B5003E212030B5003E212C08AF00183046
:10071000B000B8222030B5003E212030B5003E2187
:100720002C08AD000230AF00C830B6002220AF0B5D
:06073000942B412B630035
:02400E00313F40
:00000001FF
;PIC16F877A
;CRC=4711  CREATED="04-Oca-21 13:28"
